:100000000C9434000C9449000C9449000C94490061
:100010000C9449000C9449000C9449000C9449003C
:100020000C9449000C9449000C9449000C9449002C
:100030000C9449000C9449000C9449000C9449001C
:100040000C9449000C9449000C9449000C9449000C
:100050000C9449000C9449000C9449000C944900FC
:100060000C9449000C94490011241FBECFEFD8E036
:10007000DEBFCDBF12E0A0E0B1E0E4E3FCE002C0EF
:1000800005900D92AC3DB107D9F70E947C050C9408
:1000900018060C9400000F931F93CF938C01C0E0BF
:1000A000F8018081C81748F4F801EC0FF11D818137
:1000B00090E00E94A602CF5FF3CF8E3141F40E9400
:1000C0003F02C801CF911F910F910C940504CF916D
:1000D0001F910F9108950E94A8000E9488030E941A
:1000E00081030E9416030E943F02549A08950F93C1
:1000F0001F93CF93DF93EC018B0169E00E94C5034E
:1001000065E0CE010E94C50361E0CE010E94C503F7
:1001100062E0CE010E94C50363E0CE010E94C503E8
:1001200067E0CE010E94C5036BE0CE010E94C503CB
:100130006AE0CE010E94C50369E0CE010E94C503BA
:1001400065E0C801DF91CF911F910F910C94C50319
:1001500087B1806387B988B1806388B98CE0809368
:10016000B8001092B90084E18093BC000895109209
:10017000BC0008958091BC00846A8093BC0080918B
:10018000B900886F8093B9008091BC0087FFFCCFD5
:100190008091B900886F8093B9000895ECEBF0E08E
:1001A00080818469808308958093BB0084E8809374
:1001B000BC008091B900886F8093B9008091BC0029
:1001C00087FFFCCF8091B900886F8093B9000895B4
:1001D00084EC8093BC008091BC0087FFFCCF8091B1
:1001E000BB00089584E88093BC008091BC0087FF29
:1001F000FCCF8091BB0008951F93CF93DF93182FFE
:10020000D62FC42F0E94BA00812F880F0E94D400DD
:100210008D2F0E94D4008C2F0E94D400DF91CF91AB
:100220001F910C94CE001F93CF93DF93EC01162FF8
:100230000E94BA008C2F880F0E94D400812F0E9448
:10024000D4000E94BA00CE01880F991F81600E94DD
:10025000D4000E94F200C82F0E94CE008C2FDF91A4
:10026000CF911F910895FF920F931F93CF93DF9328
:10027000F62E122FC82FD0E050E06BE570E0CE01D3
:100280000E94FC004F2D50E06EE570E0CE010E9410
:10029000FC00412F50E06DE570E0CE010E94FC00B3
:1002A000402F50E06CE570E0CE01DF91CF911F91BF
:1002B0000F91FF900C94FC000F931F93CF93C82FC6
:1002C0008B010E94BA008C2F880F0E94D40080E01E
:1002D0000E94D4000E94BA008C2F880F81600E9477
:1002E000D4000E94E800F80180830E94F200F80127
:1002F0008183CF911F910F910C94CE00CF92DF920A
:10030000EF92FF920F931F93CF93DF936B01C4E0A3
:10031000D0E0E82EF12CBE01C7010E941301082F86
:1003200010E0BE016F5F7F4FC7010E941301837011
:10033000182BF601019311936F012296CE31D1054E
:1003400051F7DF91CF911F910F91FF90EF90DF90C8
:10035000CF9008957F928F929F92AF92BF92CF924B
:10036000DF92EF92FF920F931F93CF93DF934A0197
:10037000FA01118210828B01C4E0D0E0C12CD12C93
:10038000E82EF12CAA24A394B12CBE01C7010E942F
:100390001301782EBE016F5F7F4FC7010E941301CA
:1003A000FFEFCF1ADF0AF801219131918F01482F19
:1003B0004370872D90E0942B2250310982179307C8
:1003C00070F4F40120813181C5010C2C02C0880F2A
:1003D000991F0A94E2F7822B932B918380832296B4
:1003E000CE31D10591F6DF91CF911F910F91FF9002
:1003F000EF90DF90CF90BF90AF909F908F907F90C5
:100400000895CF92DF92EF92FF920F931F93CF93B5
:10041000DF93C1E4D0E0082F10E0E42EF12CC62ECB
:10042000D12CC0FF02C0A60101C0A701BE01C801B6
:100430000E94FC002196CA35D10599F7DF91CF9132
:100440001F910F91FF90EF90DF90CF90089520E0E3
:1004500030E061E070E0AB01022E02C0440F551F96
:100460000A94E2F748235923452B11F0822F08956F
:100470002F5F3F4F2C30310571F78FEF0895CF93E9
:10048000DF930E94BA0088E70E94D40080E40E94B3
:10049000D400C0E0D4E080E00E94D4002197D9F7D6
:1004A000DF91CF910C94CE000F931F93CF93DF93E6
:1004B0008C010E94BA0088E70E94D40080E40E9468
:1004C000D400C0E0D0E0F801EC0FFD1F85919491BD
:1004D0000E94D4002196C11584E0D807A1F7DF91CE
:1004E000CF911F910F910C94CE001F93CF93DF9368
:1004F000C82F0E94BA0088E70E94D40080E40E94BE
:10050000D40085E0C802E0011124C05ADF4F10E09A
:1005100089910E94D4001F5F1530D1F7DF91CF91F0
:100520001F910C94CE000F931F93CF938C01C0E0CA
:10053000F801EC0FF11D8081882321F00E947502E3
:10054000CF5FF6CFCF911F910F910895EF92FF9259
:100550000F931F93CF93DF93FC01892B11F480E35A
:100560003EC0C0E0D0E020E030E04AE00AE010E029
:10057000429F7001439FF00C1124CF01B8010E94EB
:10058000F0059701280F391F429FB001439F700D5E
:100590001124860F971F892B09F42196CF01B801EA
:1005A0000E94F005FB01309719F70AE010E02115D1
:1005B000310551F0C901B8010E94F0057B01805D51
:1005C0000E9475029701F3CF209729F080E30E94E3
:1005D00075022197F9CF80E20E94750280E2DF91D7
:1005E000CF911F910F91FF90EF900C947502CF93D4
:1005F000DF93C82FD62F0E94BA0088E70E94D4004C
:1006000080E00E94D4008D2F8770806B0E94D40000
:100610008C2F8F700E94D4008C2F82958F708061F8
:100620000E94D400DF91CF910C94CE000E94BA00BA
:1006300088E70E94D40080E00E94D4008EEA0E94E5
:10064000D40084ED0E94D40080E80E94D40088EA9F
:100650000E94D4008FE30E94D40083ED0E94D40056
:1006600080E00E94D40080E40E94D4008DE80E94C3
:10067000D40084E10E94D40081EA0E94D40088EC76
:100680000E94D4008AED0E94D40082E10E94D4002E
:1006900081E80E94D40081E00E94D40089ED0E948C
:1006A000D40081EF0E94D4008BED0E94D40080E43E
:1006B0000E94D40080E20E94D40080E00E94D40016
:1006C00084EA0E94D40086EA0E94D4008FEA0E9445
:1006D000D4000E94CE0060E080E00E94F7020C94FB
:1006E0003F02CF93C82F0E94BA0088E70E94D4002F
:1006F00080E40E94D4008C2F0E94D400CF910C94EF
:10070000CE008AB1807F8AB9089589B18F7008952B
:100710001092800085E080938100109285001092F5
:10072000840008958091840090918500089520911F
:10073000840030918500A901481B590BCA01089516
:100740000F931F93CF93DF93009184001091850046
:100750002FE0289FE001299FD00D1124C8010E949D
:1007600097038C179D07D0F3DF91CF911F910F91C5
:10077000089580918400909185000C949703FC016A
:1007800040832183628313820895FC0123812E31EB
:1007900030F431E0320F3383E20FF11D64830895AA
:1007A000FC011082178E0895CF93DF93CDB7DEB78B
:1007B000DC015F968C915F9791E0980F5F969C9318
:1007C0005F9792E2899FA00DB11D1124909682E25D
:1007D000FE01359601900D928A95E1F7DF91CF9158
:1007E0000895FC0190819E3178F4292F30E09923FF
:1007F00031F0DF01A20FB31F8C91861729F09F5FA4
:100800009083E20FF31F61830895FC011082089525
:100810004F925F927F928F929F92AF92BF92CF92B0
:10082000DF92EF92FF920F931F93CF93DF93EC0130
:100830009F8CFC0120E030E08C010F5F1F4F84E6AD
:10084000A82E291508F06BC0F3A0B8806F2D70E0BA
:100850004B2D50E081A190E0DA01A81BB90B6A177B
:100860007B070CF458C0840F951F861797070CF46C
:1008700052C0902F812F2F0144E2440E511CBF140F
:1008800020F4942D852D2801BF2CE92EF82E40E070
:1008900050E0812C80E090E04B1598F4D7017D90DA
:1008A0007D016A01C818D108C40CD51CD601DC90A2
:1008B000D71002C0019602C0839401974F5F5F4F2B
:1008C000EBCF7C0197FF02C0E12CF12C80A1AB01A2
:1008D000481B5109A49EC001A59E900D11240E94A1
:1008E00004066B01AE9CC001AF9C900D11246B2DD2
:1008F00070E00E94040677276C157D0564F02F5F79
:100900003F4F42E2429FC001439F900D1124C80F08
:10091000D91F888105C02F5F3F4FB29692CF80E0EC
:10092000DF91CF911F910F91FF90EF90DF90CF90CB
:10093000BF90AF909F908F907F905F904F90089561
:10094000EF92FF920F93CF93DF93CDB7DEB7C55BE6
:10095000D1400FB6F894DEBF0FBECDBF7C01CE01F3
:1009600084519F4F0E94D0038AECFE01E451FF4F57
:10097000DE01119601900D928A95E1F70FE320E0D8
:1009800040E06CE08AE50E94330140E060E08AE5E7
:100990000E940102BE016C527F4F8AE50E947E01D7
:1009A000C553DF4F19821882CB5CD040C353DF4F51
:1009B0001882CD5CD040C253DF4F19821882CE5CC2
:1009C000D040C053DF4F19821882C05DD040CE5254
:1009D000DF4F19821882C25DD0408BEEFE01319646
:1009E000D70101900D928A95E1F7C701CB54DE4FF4
:1009F0000FB6F894DEBF0FBECDBFDF91CF910F9140
:100A0000FF90EF9008958F929F92AF92BF92CF92F6
:100A1000DF92EF92FF921F93CF93DF93EC017C0163
:100A20002DECE20EF11CBC016D527F4FA7018AE54F
:100A30000E94AA01F701808191810E9427026E0124
:100A4000FFECCF0ED11C082E000C990BF601918300
:100A500080835E01FAECAF0EB11CF50180819181BB
:100A60000E949703893B9B40B8F0CE010E94080486
:100A70004E012CEC820E911CF40180830E949203A3
:100A8000F50191838083F4011081112329F01082F4
:100A9000CE010E94050423C0F60180819181019658
:100AA000E9F00E949203F501918380835E01F1EDEC
:100AB000AF0EB11CF50120813181F7018081918158
:100AC0002817390729F0F6016081CE010E94F10351
:100AD000F70180819181F5019183808310E0812F5E
:100AE000DF91CF911F91FF90EF90DF90CF90BF905B
:100AF000AF909F908F900895CF93DF93CDB7DEB7DF
:100B0000CF52D1400FB6F894DEBF0FBECDBF0E94CA
:100B10006B00CE0101960E94A00424E045E061E054
:100B2000CE01825F9E4F0E94BF0320E040E062E062
:100B3000CE0184519F4F0E94BF0340E050E0BE01B0
:100B400064517F4FCE01825F9E4F0E9477008DB728
:100B50009EB782970FB6F8949EBF0FBE8DBFADB7FC
:100B6000BEB7119682E2FE01E25FFE4F01900D9248
:100B70008A95E1F7CE0101960E94D4038DB79EB706
:100B800082960FB6F894DEBF0FBECDBF82970FB628
:100B9000F8949EBF0FBE8DBFADB7BEB7119682E26F
:100BA000FE01E451FF4F01900D928A95E1F7CE01CD
:100BB00001960E94D4030FB6F894DEBF0FBECDBFDE
:100BC00010E180E090E00E9497038A309D4318F086
:100BD0008BB181278BB9CE0101960E940305F1CF1D
:100BE000AA1BBB1B51E107C0AA1FBB1FA617B70753
:100BF00010F0A61BB70B881F991F5A95A9F780956F
:100C00009095BC01CD01089597FB072E16F4009432
:100C100007D077FD09D00E94F00507FC05D03EF40F
:100C2000909581959F4F0895709561957F4F089598
:040C3000F894FFCF66
:100C3400000000000000005F00000007000700142F
:100C44007F147F14242A7F2A1223130864623649EE
:100C54005522500000030000001C224100004122E4
:100C64001C0014083E081408083E08080050300010
:100C7400000808080808006060000020100804024A
:100C84003E5149453E00427F400062514949462257
:100C9400414949361814127F1027454545393C4AC5
:100CA400494930017109050336494949360649491C
:100CB400291E003636000000563600000814224172
:100CC40000141414141400412214080201510906DA
:100CD400324979413E7C1211127C417F4949363EAA
:100CE40041414122417F41413E7F494949417F0978
:100CF4000909013E4141497A7F0808087F00417F84
:100D040041002040413F017F081422417F40404080
:100D1400407F020C027F7F0408107F3E4141413E28
:100D24007F090909063E4151215E7F09192946269A
:100D34004949493201017F01013F4040403F1F20A2
:100D440040201F3F4038403F631408146307087075
:100D540008076151494543007F41410002040810DE
:100D6400200041417F000402010204404040404011
:100D7400000102040020545454787F484444383815
:100D840044444420384444487F3854545418087E1A
:100D9400090102085454543C7F0804047800487D37
:100DA40040002040443D007F1028440000417F4023
:100DB400007C047804787C0804047838444444387B
:100DC4007C14141408081414187C7C0804040848BF
:100DD40054545420043F4440203C4040207C1C2078
:100DE40040201C3C4030403C44281028440C5050C7
:100DF400503C4464544C44000836410000007F00D9
:0C0E04000000413608001008081008002B
:00000001FF
